:0300000002308B40
:0C308B00787FE4F6D8FD7581070230D292
:083726007F0B7EBEDEFEDFFC1E
:01372E002278
:04363C00AD07AC0624
:10364000E4FBFAC3EB9DEA9C500A1237260BBB0041
:04365000010A80EFFC
:013654002253
:10000E007D057C00C3ED9FEC9E500900000DBD00E8
:04001E00010C80F061
:0100220022BB
:100026004A494F4E5F494F5420434F4C4F5200446C
:10003600656D6F323031354066616E637900FFDF82
:10004600FFFFFFFFFFFFFFFFFFFFFFFFFFFFFFFFBA
:10005600FFFFFFFFFFFFFFFFFFFFFFFFFFFFFFDFCA
:10006600FFFFFFFFFFFFFFFFFFFFFFFFFFDFFFDFDA
:10007600FFFFFFFFFFDFFFFFFFFFF7BFD6DCBE3A44
:10008600C65ADEFCF7BFFFFFFFFFFFFFFFFFFFDFE4
:10009600FFDFFFDFFFFFFFFFFFFFFFFFFFFFFFFFAA
:1000A600FFFFFFDFFFFFFFFFFFDF94955AF1AD78FB
:1000B600C61BE71DFFFFFFDFFFFFFFFFFFFFFFFF81
:1000C600FFFFFFFFFFFFFFFFFFFFFFFFFFFFFFFF3A
:1000D600FFFFFFFFFFFFFFFFFFFFFFFFFFFFFFFF2A
:1000E600FFFFFFDFFFFFFFFFFFFFFFFFFFFFFFFF3A
:1000F600FFFFFFFFFFDFCE9B8D1664344BB44B33FF
:100106003AD2324F322E6B91D69BFFBFFFFFFFFFD5
:10011600FFFFFFDFFFFFFFFFFFFFFFFFFFFFFFFF09
:10012600FFFFFFFFFFFFFFFFC61A106E083018B172
:1001360031783193EF9EFFFFFFFFFFFFFFFFFFFFC9
:10014600FFDFFFFFFFFFFFDFFFDFFFFFFFFFFFFF19
:10015600FFFFFFFFFFFFFFFFFFFFFFFFFFDFFFDFE9
:10016600FFFFFFDFFFFFFFFFFFFFFFFFFFFFFFFFB9
:10017600FFFFCEBB7CD66497649843543AD13B11BB
:10018600435243534352431142F04B116BD39D16D6
:10019600E75DFFDFFFFFFFFFFFFFFFFFFFFFFFFF43
:1001A600FFFFFFFFFFFFFFFF6B341072081118B649
:1001B60018962115CE5BEF7DEF7DFFDFFFFFFFDF9A
:1001C600FFFFFFFFFFFFFFFFFFFFFFFFFFDFFFDF79
:1001D600FFFFFFDFFFFFFFFFFFFFFFDFFFFFFFFF69
:1001E600FFFFFFFFFFFFFFFFFFDFFFFFFFFFE75DF3
:1001F6009DB9751864985C7864B864B96CB96499EB
:1002060064585C174B753AD23AB23AB23AD242F2D5
:1002160042B07C75E73DFFFFFFDFFFFFFFFFFFFFFB
:10022600FFFFFFFFFFFFFFDF31520012082E0854C9
:10023600001410701083628983CEC618FFFFFFFF7B
:10024600FFFFFFFFFFDFFFFFFFFFFFFFFFFFFFFFD8
:10025600FFFFFFDFFFFFFFFFFFFFFFFFFFFFFFFFC8
:10026600FFFFFFFFFFFFF7DFEF9EF7DFB6196C9684
:1002760054164BB55C5764785C585C385C1753D69B
:1002860053954B34435453954B753AB23A913A9140
:100296003A913AB142B0C63AFFFFFFFFFFFFFFFFB8
:1002A600FFFFFFFFFFFFE73D20F00013000D107278
:1002B6000011085118AE42098BCFA514F7DFFFFFD6
:1002C600FFFFFFDFFFDFFFFFFFFFFFFFFFFFFFFF78
:1002D600FFFFFFFFFFFFFFFFFFFFFFDFFFFFFFFF48
:1002E600FFDFDEFC9D995B93639253523AD13291C4
:1002F60043134B7553D653B54B333AD1328F3AD15C
:100306003AB132702A2F29CD29EE42F221AC194B8F
:10031600192A322E320E3A6FBE1AFFDFFFFFFFFF99
:10032600FFFFFFFFEF3E4A560851084F63338435FF
:1003360018D010700810B5DA9CF3A4F3D6BBFFFFF3
:10034600FFFFFFDFFFDFFFFFFFFFFFFFFFFFFFFFF7
:10035600FFFFFFDFFFDFFFDFFFDFFFDFFFFFF79EB0
:1003660094F64B73322F192A21CD32703A91324FBF
:100376003A9042D05B937C769DB9AE3B8D17426C2A
:100386001107216A216C218C218C218C3AD121AD57
:1003960021AC29ED63519D368C94B5D8FFDFFFFF64
:1003A600FFFFFFDF5AB50855001173B4F79EFFDF54
:1003B600529108324A73F7DFAD759451E73DFFFF5E
:1003C600FFDFFFFFFFFFFFFFFFFFFFFFFFFFFFFF57
:1003D600FFFFFFFFFFFFFFFFFFFFFFFFEF7E7454EE
:1003E6003AB121AC08C8326F29EE42CF7454A5BB8E
:1003F600BE7EADFEA5FEBE7FCEFFCF1FC6FFB69E5C
:10040600851A29AA1929194A298B21AC29CD3AD04E
:10041600192910C729CC426E94D6E75DEF5DFFFF20
:10042600FFFFFFDF633408340010212FFFDFFFFFDB
:10043600B55520E6DF1DFFFF8C309C92FFFFFFFFC6
:10044600FFFFFFFFFFFFFFFFFFDFFFFFFFFFFFDFF6
:10045600FFDFFFDFF7DFF7BFF79ECE7A639063F427
:100466003AD13B12216A5B50B65BDF5FD75FC6DFCE
:10047600ADFE84FA9D9EBE7FCEFFCF1FC6FFC6FF90
:10048600AE5E8D5C218A194A1908192921AC2A0EFB
:10049600322E192929ABEF7ECE9BADD8DF1CFFFF8C
:1004A600FFFFFFFFD69C1092002E7C15FFDFFFFF9B
:1004B6009CD228C3F7BEEF3C62AAAD55FFFFFFFFF3
:1004C600FFFFFFFFFFFFDF1C74947C7384F584D667
:1004D60074B66C76643653D44B94220D6C338518FF
:1004E60042D22A4F29EBCEFEDF7F9D59B65DC6DF8D
:1004F600AE1E8D5D9DBEBE9FC71FC71FC6FFC6FF32
:10050600B69E95DE749810C710E819291108218B3C
:100516002A0E21AB218AEF7EFFFFFFFFE77DF7BEA4
:10052600FFFFFFDFBDD918D218CDEF9EFFFFFFFFFB
:10053600DEDA20A2732D62A949E6EF9EFFFFFFFFD8
:10054600FFFFFFFFFFFF951585FA64764B934B522D
:1005560043324331539253713AAE4B72A5FB63F368
:10056600326F7C55ADBADF5FDF7F8495A5DBD71F81
:10057600BE7FA61EAE5FC6FFCF1FC71FC6FFC6FF44
:10058600BEBFA61E857D298A190810E7110810E846
:1005960021AC29ED29CBF7DFFFFFFFFFFFFFFFFFB0
:1005A600FFFFE73D29520834000CB5B9FFFFFFFFF6
:1005B600FFDFB5755A47414394B2FFDFFFFFFFFFE8
:1005C600FFFFFFFFFFFFF7BE74D653B35B6E7C7170
:1005D6008CF49D96A5D8A5D863F36C987CB553305A
:1005E600322F324F6BF3DF5EDF5E5B71BE7EDF5F05
:1005F600CF1FC6DFC6FFCF1FC71FC6FFC6DFBEDFC2
:10060600BEDFA63E8D7E4B1119081928194910E741
:10061600192829AC4ACEFFDFFFFFFFFFFFFFFFFFD0
:10062600FFFFEF5D39D40832084BBDF9EF7EFFFFBF
:10063600FFFFFFFFF7BEDF1CFFFFFFFFFFFFFFFF10
:10064600FFFFFFFFFFFFFFFFA59853F643118CD472
:100656009D76A5D8A5D88D364B9453D59D98530F26
:10066600196B322F6BB2E79FBE5A7455D73FE77F9F
:10067600DF7FD75FCF3FC6FFA5FC74777498749869
:1006860085198D5A8D9D6C9810A518E719081908BB
:1006960010C6216A73F1FFFFFFFFFFFFFFFFFFFF99
:1006A600FFFFFFDFB5BA10904A7073938436FFFFE1
:1006B600FFFFFFDFFFFFFFDFFFFFFFFFFFDFFFFFA4
:1006C600FFFFFFFFFFFFFFFFF7BE5B72433442AE43
:1006D6008CF5A5D8A5F85BB24BD55BF542AE5B941D
:1006E60032504AF19517E79FA5B8B63CE79FE79FBA
:1006F600DF7FDF5FCEFF63B53AB353DA5C7D64BD5F
:100706006CDD74DC5C177CFB10C510C610E719089D
:1007160010A610E7C679FFFFFFFFFFFFFFFFFFFFF1
:10072600FFDFFFDF6B32000C082829754A55CE3BE8
:10073600EF9EFFDFFFFFFFFFFFFFFFFFFFFFFFFF54
:10074600FFFFFFFFFFFFFFFFFFFFE73D5B313A9132
:10075600320D7433A59743324BB5643642AD10E87B
:100766003A6E6BF4B61BE79FDF3DEF9FEFBFE79F47
:10077600DF7FD75F95593AD44BDA5C5D649D6CDDBB
:10078600751E7D3E853D539629AA10A510A50884A1
:10079600088410C5EF7EFFDFFFFFFFFFFFDFFFDFEF
:1007A600F79E7373106A108E10B01092082F002DEA
:1007B600C65BFFFFFFFFFFDFFFFFFFFFFFFFFFFF40
:1007C600FFFFFFFFFFFFFFFFFFFFFFFFEF5D52EFA2
:1007D6002A2E218B29894B95431243105BB263B3B2
:1007E600953ABE7ED71FE79FEFBFEFBFE79FE79F14
:1007F600DF7FD75F74564B3753FB5C5D649D6CFDA2
:100806007D3E855E857D4B333A4D086318C22923AC
:10081600212318A2626A838F9452A4F4BD96D67AD5
:10082600AD16295518B308510010001208124AD502
:100836007435DEDCFFFFFFDFFFFFFFDFFFFFFFFF9B
:10084600FFFFFFFFFFFFFFFFFFFFFFFFFFFFEF9E23
:100856004A8D21AB326E5C3742F14B1053715373A4
:100866005BB55BB46BF4D73EE79FE79FE79FE79FD7
:10087600DF7FD75F9D7A42F553DA5C5D649D6CDE5F
:100886007D3E857E8D7E5BF6428E084118A1294409
:10089600318531457A6AB38DBBAEB3AEA36D930C89
:1008A6006A2920C74166416708260009190CBEDE81
:1008B600C6FFBE7BFFFFFFFFFFFFFFFFFFFFFFFF40
:1008C600FFFFFFFFFFFFFFDFFFDFFFFFFFFFFFFF72
:1008D600E73C422A4B524B742A6F64368D7963F695
:1008E60042F33AD24B12DF5FE79FE79FE79FE77F2E
:1008F600DF7FD75FCF1F743643365C3C649D6CDD6B
:100906007D3E857E8D7E5BD64B12082010812103AD
:100916003165318531247A279AA9AB2CB36CAB2B80
:100926009ACA61858A899ACAA32C61E88496C6FF09
:10093600C6FFBE7BFFFFFFFFFFFFFFFFFFFFFFFFBF
:10094600FFFFFFFFFFFFFFDFFFDFFFFFFFFFFFFFF1
:10095600FFFFC6385C155C385C386C988D385B9345
:100966004B3263B37C55DF5FDF7FE79FE79FE77F0F
:10097600DF7FD75FD73FCEFE743643365C5D6CBDF6
:10098600751D7D3E855E4B334B32084118C22923C7
:10099600316439853165390392CA9A8981E681C6FF
:1009A60081C5616481E681C681E671A5A5D9BEFFD0
:1009B600BEDFBE5BFFFFFFFFFFFFFFDFFFFFFFFFA7
:1009C600FFFFFFFFFFFFFFDFFFFFFFFFFFFFFFDF71
:1009D600FFFFDEFC5C565C595C3853D57496539425
:1009E600327029ED4AAEC6DEDF5FDF7FDF7FDF7F55
:1009F600DF7FD75FD73FCF1FC71EA5FB6C385C3B99
:100A06006CDD751D7D1D4B554B3208632A0B320A72
:100A1600294531853985290338C2494528C669855E
:100A260081C5510381C581C581C579C6A599B67FA2
:100A3600A61FA5BAFFFFFFFFFFFFFFFFFFFFFFFF98
:100A4600FFFFFFFFFFFFFFFFFFFFFFDFFFFFFFFFD0
:100A5600FFFFEF5D5C365C5964586C5785182A6F4A
:100A66004AF17C77A5BACF1FD6FEDF5EDF7FDF7F38
:100A7600DF7FDF5FD73FCF3FCF1FC6FFBEDF957A51
:100A860064174B95537453B64B3353326C79749940
:100A960049C859C620E31062296842AF29B440C547
:100AA60071845923718469846984698474377D1ECD
:100AB600857E9559FFFFFFDFFFDFFFFFFFFFFFFF8B
:100AC600FFFFFFFFFFFFFFFFFFFFFFFFFFFFFFFF30
:100AD600FFFFEF7D5C555C172A4F4B727CB632B038
:100AE6007C99A5DDBEBED73F9D377C74DF7FDF7F57
:100AF600DF5FD71FCF1FCF1FCF1FC6FFC6DFBEBF0B
:100B0600B67EA61E8D9D751D42B0428F6C166393F0
:100B160071E8820728C5084418C6082208B2186575
:100B260048E240C240C248E2510251024A8E53D8BE
:100B36006C578D16FFFFFFFFFFFFFFFFFFFFFFFF55
:100B4600FFFFFFFFFFFFFFFFFFFFFFFFFFFFFFFFAF
:100B5600FFFFF79E5C345C585C586C985BB353940B
:100B660042F24B337415C6BDCEBD6BD2D73EDF5FA6
:100B7600CEDFBE7FB67FC6DFC6FFC6DFBEDFB69F4F
:100B8600AE7E9E1E857E751D320C31EB53108CB6E3
:100B96002966290320C20842424C0866212A1064AD
:100BA60059A5494449445985596440E32906955A4B
:100BB600BEDE9536FFFFFFFFFFFFFFFFFFFFFFFFD4
:100BC600FFFFFFFFFFFFFFFFFFFFFFFFFFFFFFFF2F
:100BD600FFFFF7DE53D35C585C38431142D042F234
:100BE60032703250320EC6BDD73E6C13AE1BCEFFEE
:100BF600AE3E7CBA959EAE3FBEBFBEBFB6BFB67F09
:100C0600AE3E95DE857D74FC218A424B5B0E4A6AB8
:100C160031443985290361A57A28722861E78289DA
:100C2600A2EB8A6892AA928992688A27626ABEDED5
:100C3600C6FF9557FFDFFFDFFFFFFFFFFFFFFFFF49
:100C4600FFFFFFFFFFFFFFFFFFFFFFFFFFDFFFFFCE
:100C5600FFFFFFDF74955C385C385374322E21AC8D
:100C6600322E3A4E218A9518CF1F8CF7955AB69F89
:100C76009D9E7CBD84FE9DBEAE5FAE7FAE5FA63EF2
:100C86009DFE8D9E7D3D6C3829A929452124316420
:100C96003164294459858A47A2EB9AEA9A898A4897
:100CA6008A4771E692698A278A2781E64166C6DE07
:100CB600C6FF8D38F7DFFFDFFFFFFFFFFFFFFFFFF8
:100CC600FFFFFFFFFFDFFFFFFFFFFFFFFFDFFFFF6E
:100CD600FFFFFFFF8D36647853D753B63A70322E36
:100CE60042D0320D428F9DDCBEBF95595BF9A61FDF
:100CF6008D7E8D3E7CDE955E9DFE9E1F9DFF95DE64
:100D06008D9E7D3E74DD4AD0214629232923290361
:100D16003144496592A99AC98A2781E581C581C569
:100D260081C571A581E681C681C679A54145B69E74
:100D3600AE7F84F8F7DFFFFFFFFFFFFFFFFFFFFF38
:100D4600FFFFFFFFFFFFFFDFFFFFFFFFFFFFFFFFCD
:100D5600FFFFFFDFA597647853B653B653D642F22A
:100D660042D15B736BF6853C9DDE8D5B5BFA95DE4F
:100D76008D7E8D1E84FE8D7E95BE95DE8D9E857E36
:100D8600753D6CDD6C39212818E42923188120E291
:100D960039249AEA9AEA9268820681C581C581C594
:100DA60081C571C5822779C579A5696430C37CDAA6
:100DB6007D5E7CD8FFFFFFFFFFFFFFFFFFFFFFFF0A
:100DC600FFFFFFFFFFDFFFDFFFFFFFFFFFFFFFFF6D
:100DD600FFFFF7DF74755BF74B954B754B543AD2B3
:100DE6003270327032713271751D751E6CDD7D5E2A
:100DF600855E853E853E8D5E857E855E7D3E74FE86
:100E060064BD645A531208A518C30840106020C276
:100E16008AAA9AEA8A48822681E681C581C581E541
:100E260081E579A571C669635943490228A26BD544
:100E36006C7B6C56FFDFFFDFFFFFFFFFFFFFFFFF4F
:100E4600FFFFFFFFFFFFFFFFFFFFFFFFFFFFFFFFAC
:100E5600FFFFBE5B6CF954174B75435443343AD2CB
:100E66002A5021CD198C196B3A91647B649D64BD1F
:100E76006CDD74FE7D3E751E751E751D6CDD6CBCCD
:100E86006419639429AA0864106208200840414442
:100E96008A8971E661A5618461645923512348E317
:100EA60038A220611841206110200800000010C4FB
:100EB600192694F4FFFFFFFFFFFFFFFFFFFFFFFF71
:100EC600FFFFFFFFFFFFFFFFFFFFFFFFFFDFFFFF4C
:100ED600E75D74F853953AB153D7435443133AD266
:100EE6003291327132702A0E29CD29ED5BB75C5CE6
:100EF6005C5D5C3B53B842F53AD332712A2F2A0F18
:100F0600324F2A2E2A0D21AB196908A5086328E459
:100F1600496449232881104118A2292318A20020D8
:100F26000820000000000000000000000000000093
:100F360018C3F7DFFFFFFFDFFFFFFFFFFFFFFFFF26
:100F4600FFFFFFFFFFFFFFFFFFDFFFFFFFFFFFDFEB
:100F56009DB86C9842AE4B2F5C1853B643143AD2E8
:100F66003AB23AB23A923A9132712A0F29CD2A0F01
:100F760029EF21EF2A0F32503A7132913AB23AB242
:100F86003AD343134B75541753B63AD23A91322F8C
:100F960029AC212818C429243184290318A1084022
:100FA600084000000000000008200820082000007B
:100FB6000841F7BEFFFFFFDFFFFFFFFFFFDFFFFF79
:100FC600FFFFFFFFFFFFFFFFFFFFFFFFFFFFCEBBA0
:100FD60074F84B5273F095564B7353D653D64B5405
:100FE60042D23AB23AB23A913A9132713A913A7160
:100FF6003A913A71327132713A713A913AB242F398
:1010060043144B7553F75C3853D642F33A913A7111
:101016003A713271327029ED2127188110601881DA
:1010260008400000082010611040084008400820D1
:101036000840EF9EFFFFFFFFFFFFFFFFFFFFFFFFE1
:10104600FFFFFFFFFFFFFFFFFFFFFFFFF7DF853714
:101056005BF65B6F9535A5D87C7442F343144B550C
:10106600433443133AD23AB23AB23A913A713A71A8
:101076003A713271327132503250329143134B957C
:1010860043744B954BB54B743AF23270324F2A0E7D
:1010960021AC218B29AC29ED324F29EC18E520C271
:1010A600106120E320E21081106110611061084098
:1010B6000820E75DFFFFFFFFFFFFFFFFFFFFFFFFCA
:1010C600FFFFFFFFFFFFFFFFFFFFFFDFB5F964B87C
:1010D60042CE8492A5D8A5D8A5D86C1342D23AB2EE
:1010E6003AB23AD242D23AB23A923A923A913A71F4
:1010F6003A913A913A923AB242F343344B955BF7BE
:101106005C3853F75C385C385BF74B3329CC088680
:10111600088510A610C610A50843088410A410C49C
:1011260041C741C6292320C2188110400840082023
:101136000820E77DFFFFFFFFFFFFFFFFFFFFFFFF29
:10114600FFFFFFFFFFFFFFFFFFFFEF7D74D74B524F
:101156006BAF9535A5B7A5D8A5D89D7742AE3250C9
:101166003A923A9242D242D23A923A923A923A918A
:101176003A913271327142F343344B75435453F70B
:101186005C5964584BB553D654174B954313324F9D
:101196001109086584532967298910A541E7524832
:1011A6004A073985290218A1186110401040082005
:1011B6000000DF1CFFFFFFFFFFFFFFFFFFFFFFDF5A
:1011C600FFFFFFFFFFFFFFFFFFFF9D7753D4428B1B
:1011D6005B4E5B4F4AEF428F31EC194910E610C760
:1011E60032503A913A913AB242F342F33AB23A91D4
:1011F6003A913A923A923A9142F34B9553B6435406
:1012060054175C3853F74B753AF243343AD232915D
:101216003250218C18E739E85269420831864A284B
:1012260041E63984290220A21861104008400820AE
:101236000000DF1CFFFFFFFFFFFFFFFFFFFFFFDFD9
:10124600FFFFFFFFFFFFFFFFBE196CD74B522A0EB1
:101256003A703A90324F322F2A0D21AC21491907A4
:1012660010E729ED3AD23AB13A923AB242F3431331
:10127600433442F33AD23AF34313431353D65C381A
:101286004B9553F7539643133AD22A0E32503A915E
:101296003270327021AC10A45268524852484A0744
:1012A60041C63164290220A118811060082000007F
:1012B60010A2F7DFFFFFFFFFFFFFFFFFFFFFFFFFAC
:1012C600FFFFFFFFFFFFFFDF74327D7A5372741357
:1012D60094D5A577B5D8BE19C67AC659C659CE795A
:1012E600C638C639ADD8749553B3433243123AD291
:1012F6003AD23AD1433353B653D7541753F6649977
:1013060064BA53F653D643543AB23291198C2A0E24
:101316003270327032501929318652484A2741E6D6
:1013260039A5314320E218A11881082008000000E1
:10133600632DFFDFFFFFFFFFFFFFFFFFFFFFFFFF45
:10134600FFFFFFFFFFFFFFFFA5F96C95DF3DFFFFE6
:10135600FFFFFFFFFFFFFFFFFFFFFFFFFFFFFFFF97
:10136600FFFFFFFFFFFFF7DFF7BED6FCB5F884D41B
:101376006BF34B31326F3290329153B65C384B95EA
:101386005C3853F743133AF23AB232713250218C39
:1013960021AD32703250322F190739C74A2741C65C
:1013A60031642923290320C21060082008000000A8
:1013B60094B3FFDFFFFFFFFFFFFFFFFFFFFFFFFF0E
:1013C600FFFFFFFFFFFFFFFFCEDBEF9EFFFFFFFFED
:1013D600FFFFFFFFFFFFFFFFFFDFFFFFFFFFFFFF37
:1013E600FFFFFFFFFFFFFFFFFFDFFFDFFFDFFFFF67
:1013F600FFFFF7DFDF1C9D774B10329053F75C172A
:1014060043344B9542F332702A2F32713271327166
:101416002A0E192A29EE32702A0EAD9773AE294587
:10142600292420E31061108110811060082000003B
:1014360018C3F7BEFFFFFFFFFFFFFFFFFFFFFFFF22
:10144600FFFFFFFFFFFFFFDFFFFFFFFFFFFFFFFFC6
:10145600FFFFFFFFFFFFFFDFFFFFFFDFFFFFFFFFD6
:10146600FFDFFFFFFFFFFFFFFFFFFFFFFFFFFFDFC6
:10147600FFFFFFFFFFFFFFFFF79E6BB12A504334CC
:10148600431332703AB232912A2F21AD3250327064
:1014960032702A2F10C710C7218B530FEF9D84304F
:1014A60018A21881106008400820082000000000DB
:1014B60039E7FFFFFFFFFFFFFFFFFFFFFFFFFFFF14
:1014C600FFFFFFDFFFFFFFDFFFFFFFFFFFFFFFDF86
:1014D600FFFFFFFFFFFFFFDFFFFFFFFFFFFFFFFF36
:1014E600FFDFFFFFFFFFFFDFFFFFFFFFFFFFFFFF46
:1014F600FFFFFFFFFFFFFFFFFFFFF7BE5B0F29EEBA
:101506002A0F325021AD32503A713250216C2A0FD7
:10151600327032703250216A088508A531A88431AC
:10152600526A18E520E41861082000000000000057
:10153600634DFFFFFFFFFFFFFFFFFFFFFFFFFFFF03
:10154600FFFFFFFFFFFFFFFFFFFFFFFFFFDFFFDFE5
:10155600FFFFFFFFFFFFFFDFFFFFFFFFFFFFFFDFD5
:10156600FFFFFFFFFFFFFFDFFFFFFFFFFFFFFFFFA5
:10157600FFFFFFFFFFFFFFFFFFFFFFDFD6BB218B54
:101586002A0F29EE2A2F198D325032713271196ABB
:10159600320D322F32713271325029CE21AC198B75
:1015A600198B4B526B6E08400820082008400840F3
:1015B600D6FBFFFFFFDFFFDFFFFFFFFFFFFFFFFFA2
:1015C600FFFFFFDFFFFFFFFFFFFFFFFFFFFFFFFF45
:1015D600FFFFFFDFFFDFFFDFFFFFFFFFFFFFFFFF75
:1015E600FFFFFFFFFFFFFFDFFFFFFFFFFFFFFFFF25
:1015F600FFFFFFFFFFDFDF1CADD984F65392218B7F
:1016060021AD325021CD29EE21AD29EF3271325074
:101616006371A57752F02A0F327032703AB142D216
:101626004312CEDCFFDE8C5010820821002110A36D
:10163600F7BFFFFFFFFFFFDFFFFFFFFFFFFFFFFF1C
:10164600FFFFFFFFFFFFFFFFFFFFFFFFFFFFFFDFC4
:10165600FFFFFFFFFFFFFFDFFFFFFFFFFFFFFFFFB4
:10166600FFFFFFDFFFFFFFDFFFDFFFFFFFFFFFFFE4
:10167600FFDFDF1D95785C3553B43AD2329129EEFF
:1016860029EE21AD32712A0E21AD21AD218B3270AA
:1016960032705B30DF1CCEBA8CB46BF273F38CD530
:1016A600DF3DFFFFFFFFFFDF74110044004310C45E
:1016B600F7DFFFFFFFFFFFDFFFFFFFFFFFFFFFDF9C
:1016C600FFFFFFFFFFFFFFFFFFFFFFFFFFFFFFDF44
:1016D600FFFFFFFFFFFFFFDFFFDFFFFFFFFFFFFF54
:1016E600FFFFFFFFFFFFFFFFFFFFFFFFFFDFEF7DB6
:1016F6009D985C1543133AD23AB2329132713270E8
:10170600198C29EE29CE3271327129CD10E810A636
:10171600196A322F322D94D5EF7EFFDFFFFFFFDFF0
:10172600FFFFFFFFFFFFFFFFC67A110700431926E1
:10173600F7DFFFFFFFFFFFDFFFFFFFFFFFFFFFDF1B
:10174600FFFFFFFFFFFFFFFFFFFFFFFFFFFFFFDFC3
:10175600FFFFFFFFFFDFFFFFFFFFFFFFFFDFFFDFF3
:10176600FFDFFFFFFFFFFFFFFFFFFFFFC67B6C767C
:1017760053F64B54433442F33AB232713A713271F2
:101786002A2F21CE21CD29EF32713271218B088487
:10179600086318E5428D2A0D320D7C33AD97B5B836
:1017A600F7BEFFFFFFFFFFDFFFFFC6593A6B530D82
:1017B600FFFFFFFFFFFFFFFFFFFFFFFFFFFFFFDF53
:1017C600FFDFFFFFFFFFFFFFFFFFFFFFFFFFFFFF43
:1017D600FFFFFFFFFFDFFFFFFFFFFFFFFFDFFFFF53
:1017E600FFDFFFFFFFFFFFFFF7BE9D785C165C176C
:1017F60053D64B754B3442F33AB232913271327151
:10180600327121AD2A0F21AD21AC32703270192808
:10181600088431E9F7BEF7BEEF9EF7DFFFFFFFFF53
:10182600FFFFFFFFFFFFFFDFFFFFFFFFF7DFF7DF32
:10183600FFDFFFFFFFFFFFFFFFFFFFFFFFFFFFFFD2
:10184600FFFFFFFFFFDFFFFFFFFFFFFFFFFFFFFFC2
:10185600FFFFFFFFFFFFFFFFFFFFFFFFFFFFFFFF92
:10186600FFFFFFFFFFFFEF7D7CB65C175C175C1781
:1018760053D753964B5442F33AB23AB23A913A712D
:1018860032713A7121AD194B190911082A0E3250DD
:10189600216A2988F7DFFFFFFFFFFFFFFFFFFFDF5A
:1018A600FFFFFFFFFFFFFFFFFFDFFFFFFFFFFFFF62
:1018B600FFFFFFFFFFFFFFFFFFFFFFFFFFFFFFDF52
:1018C600FFFFFFFFFFFFFFFFFFFFFFDFFFFFFFFF42
:1018D600FFFFFFFFFFFFFFFFFFFFFFFFFFFFFFFF12
:1018E600FFFFFFFFDF1D7CD65C175C175C385C18BA
:1018F60053F74B75433442F33AD23AB23A913271C6
:1019060032713271325029CD192910A60864110797
:1019160029CC320D5B31A557DEFCFFDFFFDFFFFF71
:10192600FFFFFFDFFFFFFFDFFFFFFFFFFFFFFFFF01
:10193600FFFFFFFFFFFFFFFFFFFFFFFFFFFFFFDFD1
:10194600FFFFFFFFFFFFFFFFFFFFFFFFFFFFFFFFA1
:10195600FFFFFFFFFFFFFFFFFFFFFFFFFFFFFFFF91
:10196600FFFFD6FC6C9653B54B9553F75C385C1865
:1019760053B64B554334431342F33A9232713A719C
:101986003A713250320E21AC192910C710A610A692
:1019960010C631CA849473F27C53A577DEFCFFFF30
:1019A600FFDFFFFFFFDFFFDFFFFFFFFFFFFFFFFFA1
:1019B600FFFFFFFFFFFFFFFFFFFFFFFFFFFFFFDF51
:1019C600FFFFFFFFFFFFFFFFFFFFFFFFFFFFFFFF21
:1019D600FFFFFFFFFFFFFFFFFFFFFFFFFFFFFFFF11
:1019E600E75D74964B743AD253D65C385C3853F73D
:1019F60053B64B75433443143AB232713271327175
:101A06003A71322F29CD194A18E810C710C610A608
:101A160019286390FFDFFFFFFFFFFFFFFFDFFFDFF8
:101A2600FFDFFFFFFFDFFFFFFFFFFFFFFFFFFFFF00
:101A3600FFFFFFFFFFFFFFFFFFFFFFFFFFFFFFDFD0
:101A4600FFFFFFFFFFFFFFFFFFFFFFFFFFFFFFFFA0
:101A5600FFFFFFFFFFFFFFFFFFFFFFFFFFFFF79EF9
:101A660074754B532A5053D65C185C385C1853F780
:101A760053B64B754B5542F33A913A713A913271DE
:101A8600323029EE216B190810C710C710C610E7AF
:101A96001949A597FFDFFFFFFFFFFFFFFFFFFFDFEE
:101AA600FFFFFFFFFFFFFFFFFFFFFFFFFFFFFFFF40
:101AB600FFFFFFFFFFFFFFFFFFFFFFFFFFFFFFDF50
:101AC600FFDFFFFFFFFFFFFFFFFFFFFFFFFFFFFF40
:101AD600FFFFFFFFFFFFFFFFFFFFFFFFF7DF74744E
:101AE6004B732A2F53D65C175C185C385C385BF74F
:101AF60053B64B9543343AB23AB23A913271327098
:101B0600320F21AC192910E710E710C710E71908A2
:101B160029AAEF7EFFDFFFFFFFFFFFFFFFFFFFFFAB
:101B2600FFFFFFFFFFFFFFFFFFFFFFFFFFFFFFFFBF
:101B3600FFFFFFFFFFFFFFFFFFFFFFFFFFFFFFDFCF
:101B4600FFFFFFFFFFFFFFFFFFFFFFFFFFFFFFFF9F
:101B5600FFFFFFFFFFFFFFFFFFFFFFFFADB8328F65
:101B6600220E5C165C175C185C385C385C385BF7D8
:101B760053B64B7542F33AD23AB23A913250322FBB
:101B860029CD216A1909190810E718E81908216AE8
:101B960063B1FFFFFFFFFFFFFFFFFFDFFFDFFFFF79
:101BA600FFFFFFFFFFFFFFFFFFFFFFFFFFFFFFFF3F
:101BB600FFFFFFFFFFFFFFFFFFFFFFFFFFFFFFDF4F
:101BC600FFDFFFFFFFFFFFFFFFFFFFFFFFFFFFFF3F
:101BD600FFFFFFFFFFFFFFFFFFFFF7BE4AEF4B319F
:101BE6005C57645864995C385C385C38541853F711
:101BF60053B6433442F33AB23A913271322F29EE58
:101C0600218C216A194919091908190819293A6EE6
:101C1600B5D9FFDFFFFFFFFFFFFFFFFFFFDFFFFF7E
:101C2600FFFFFFFFFFFFFFFFFFFFFFFFFFFFFFFFBE
:101C3600FFFFFFFFFFFFFFFFFFFFFFFFFFFFFFDFCE
:101C4600FFDFFFFFFFDFFFFFFFDFFFFFFFFFFFFFFE
:101C5600FFFFFFFFFFFFFFFFFFFFB5D85B716CB70C
:101C66006D1A7D5B6CD95C385C385C3854185BF750
:101C76004B754B3442F33AB23A9132502A0E29CD83
:101C8600218B216A194A192919291929218B53935C
:101C9600F7BEFFDFFFFFFFFFFFFFFFFFFFDFFFFFD7
:101CA600FFFFFFFFFFFFFFFFFFFFFFFFFFFFFFFF3E
:101CB600FFFFFFFFFFFFFFFFFFFFFFFFFFFFFFDF4E
:101CC600FFDFFFDFFFDFFFFFFFFFFFDFFFFFFFFF9E
:101CD600FFFFFFFFFFFFFFFFFFDE8CD574F785FBDD
:101CE60085FC753A5C785C585C585C585C1853B651
:101CF6004B75431342D23A913A70324F29ED21ACDB
:101D0600298C218B214A2149214A214A3A9095372B
:101D1600FFFFFFFFFFDFFFFFFFFFFFFFFFDFFFFF0D
:101D2600FFFFFFFFFFFFFFFFFFFFFFFFFFFFFFFFBD
:101D3600FFFFFFFFFFFFFFFFFFFFFFFFFFFFFFDFCD
:101D4600FFDFFFDFFFDFFFDFFFDFFFDFFFDFFFDF9D
:101D5600FFFFFFFFFFFFFFFFDEFC74958E5C8E5DCD
:101D66007DBB751A64995C585C585C3853F74B75A3
:101D7600433442F33AB23A913250322F29EE29CD0A
:101D8600218C216B214A1949214A194B5BB3F7BEB5
:101D9600FFFFFFDFFFFFFFDFFFFFFFFFFFDFFFFFAD
:101DA600FFFFFFFFFFFFFFFFFFFFFFFFFFFFFFFF3D
:101DB600FFFFFFFFFFFFFFFFFFFFFFFFFFFFFFDF4D
:101DC600FFDFFFDFFFDFFFDFFFDFFFFFFFFFFFFFBD
:101DD600FFFFFFFFFFFFFFDFA5B7863B96BE8E5DC9
:101DE6007DDB753A5C795C585C385C174B7543341F
:101DF60042F33AD23AB23A913250322F29EE29CCF6
:101E0600218B216B214A214A19093AD1ADF9FFDF0D
:101E1600FFFFFFFFFFFFFFFFFFFFFFFFFFFFFFFFCC
:101E2600FFFFFFFFFFFFFFFFFFFFFFFFFFFFFFFFBC
:101E3600FFFFFFFFFFFFFFFFFFFFFFFFFFFFFFDFCC
:101E4600FFDFFFDFFFDFFFDFFFDFFFFFFFFFFFFF3C
:101E5600FFDFFFFFFFDFD6FC755896DE969D8E3DB1
:101E66007D9B6CD964995C3853F74B754B3443139F
:101E760042D23AB23A9132503250322F29CD29AC61
:101E8600218B216B216A218B326F6C54FFDFFFDFC0
:101E9600FFFFFFFFFFFFFFFFFFFFFFFFFFFFFFFF4C
:101EA600FFFFFFFFFFFFFFFFFFFFFFFFFFFFFFFF3C
:101EB600FFFFFFFFFFFFFFFFFFFFFFFFFFFFFFDF4C
:101EC600FFDFFFDFFFDFFFDFFFDFFFDFFFFFFFDFFC
:101ED600FFFFFFDFF7BE74D59EDE96BD967D7DBC07
:101EE600757B755A64995C384B954334431342F3BA
:101EF60042D23A9132713250322F29EE29CD21AC9D
:101F0600218B29AC320D63B35372E77EFFFFFFFFCF
:101F1600FFFFFFFFFFFFFFFFFFFFFFFFFFFFFFFFCB
:101F2600FFFFFFFFFFFFFFFFFFFFFFFFFFFFFFFFBB
:101F3600FFFFFFFFFFFFFFFFFFFFFFFFFFFFFFDFCB
:101F4600FFDFFFDFFFDFFFDFFFDFFFDFFFDFFFDF9B
:101F5600FFDFF7DF95578E5B9EDE967D85DB861C61
:101F660085FC755A6CB953B64B344334433442F34B
:101F76003A913A713250322F2A0E29ED29CD21ACF1
:101F860029CD320D5B714B32D6FCFFDFFFDFFFDF61
:101F9600FFFFFFFFFFFFFFFFFFFFFFFFFFFFFFFF4B
:101FA600FFFFFFFFFFFFFFFFFFFFFFFFFFFFFFFF3B
:101FB600FFFFFFFFFFFFFFFFFFFFFFFFFFFFFFDF4B
:101FC600F7DFEF7DF7DFFFDFFFDFFFDFFFDFFFDF9D
:101FD600FFDFA5B87D7896DD8E5C8E5C969D8E5D66
:101FE60085DC74F95BF64B544334433442D2329168
:101FF6003A713250324F2A0E29ED29CD29CD320EB3
:102006003A2E73F24AEFDF1CFFFFFFFFFFDFFFFFF1
:10201600FFFFFFFFFFFFFFFFFFFFFFFFFFFFFFFFCA
:10202600FFFFFFFFFFFFFFFFFFFFFFFFFFFFFFFFBA
:10203600FFFFFFFFFFFFFFFFFFFFFFFFFFFFFFDFCA
:10204600F7DFC659D6FCFFDFFFDFFFDFF7DFF7BE9E
:102056009516649585FA8E5B9EDE96BD8E5D85DB54
:102066006CF95BF64B944B5443133AB23A91327186
:102076003270324F322E29EE29EE2A0E322F3A6F67
:1020860084748494EF9EFFFFFFFFFFFFFFFFFFFFB7
:10209600FFFFFFFFFFFFFFFFFFFFFFFFFFFFFFFF4A
:1020A600FFFFFFFFFFFFFFFFFFFFFFFFFFFFFFFF3A
:1020B600FFFFFFFFFFFFFFFFFFFFFFFFFFFFF79E93
:1020C600DEFCE73D64138D16CE9BD6DC95165BD100
:1020D6006CD68E7C9EDE96BE8E7D85FC7D5A6CD837
:1020E60064775C1653B54B5442F23AB23A913A7061
:1020F6003250322F320E320E322F32705311A577F4
:10210600CE9BFFDFFFFFFFDFFFFFFFDFFFFFFFFFCE
:10211600FFFFFFFFFFFFFFFFFFFFFFFFFFFFFFFFC9
:10212600FFFFFFFFFFFFFFFFFFFFFFFFFFFFFFFFB9
:10213600FFFFFFFFFFFFFFFFFFFFFFFFFFFFF7DFD1
:10214600DF1C7CB4647564D664956D378E5B9EDE49
:102156009EDE969D8E3D85DB753975397D5A7D5A95
:1021660074F864775BD54B7443133AB13A91327085
:10217600324F324F322F3A9142B09516F7BEFFDFFB
:10218600FFFFFFFFFFFFFFDFFFFFFFDFFFFFFFFF99
:10219600FFFFFFFFFFFFFFFFFFFFFFFFFFFFFFFF49
:1021A600FFFFFFFFFFFFFFFFFFFFFFFFFFFFFFFF39
:1021B600FFFFFFFFFFFFFFFFFFFFFFFFFFFFFFDF49
:1021C600F7DFE75DADF985787D998E1B967D8E5C90
:1021D60085BA6CF86D1875598E3C8E5D8E3C85DB24
:1021E6007D596CB85C16539543333AB132703270F0
:1021F6003AB14B1343126C13D6DBFFFFFFFFFFFF11
:10220600FFFFFFFFFFFFFFDFFFFFFFFFFFFFFFFFF8
:10221600FFFFFFDFFFFFFFFFFFFFFFFFFFFFFFFFE8
:10222600FFFFFFFFFFFFFFFFFFFFFFFFFFFFFFFFB8
:10223600FFFFFFFFFFFFFFFFFFFFFFFFFFFFFFDFC8
:10224600FFDFDF1CA55684B47CD56C75543364B6A9
:102256007DDA969D96DE96DE96BE96BE967D8E1CA1
:102266007D9A6CF85C364B5343134B74539543532A
:10227600539384D6D6FCFFFFFFDFFFFFFFFFFFFF70
:10228600FFFFFFFFFFFFFFFFFFFFFFDFFFFFFFFF78
:10229600FFFFFFFFFFFFFFFFFFFFFFFFFFFFFFFF48
:1022A600FFFFFFFFFFFFFFFFFFFFFFFFFFFFFFFF38
:1022B600FFFFFFFFFFFFFFFFFFFFFFFFFFFFFFDF48
:1022C600FFDFFFDFF7DEDF1CA5D88D377517751723
:1022D600755885DA8E3C967D967C861B85BA755830
:1022E60064965BF45BD36C3474558CD6A597D6DBB9
:1022F600F7DFFFDFFFFFFFFFFFFFFFFFFFFFFFFF30
:10230600FFFFFFFFFFDFFFFFFFFFFFFFFFFFFFFFF7
:10231600FFFFFFFFFFFFFFDFFFFFFFFFFFFFFFFFE7
:10232600FFFFFFFFFFFFFFFFFFFFFFFFFFFFFFFFB7
:10233600FFFFFFFFFFFFFFFFFFFFFFFFFFFFFFDFC7
:10234600FFDFF7DFFFDFFFDFF7DFF7DFF7BEEF9E29
:10235600DF3CD6DCC69ABE7AC69ACEBBD6FCE75D13
:10236600EF7EF7BEFFDFFFDFFFDFFFFFFFFFFFFFB1
:10237600FFDFFFDFFFFFFFFFFFFFFFFFFFFFFFDFC7
:10238600FFFFFFFFFFDFFFFFFFFFFFFFFFFFFFFF77
:10239600FFFFFFFFFFFFFFFFFFFFFFFFFFFFFFFF47
:1023A600FFFFFFFFFFFFFFFFFFFFFFFFFFDFFFFF57
:0E23B600FFFFFFFFFFFFFFFFFFFFFFFFFFDF47
:103545004B001D323031353A30313A3232004900C4
:0A3555002831323A30303A303000AD
:1023C400123655122B7A90007A740FF090007974BB
:1023D40001F09000777416F0900076740EF090007F
:1023E400757419F09000747432F09000787404F0ED
:1023F4001234B01236A7E4FDFF123477123117906D
:10240400007AE0FD75F00A84243090001FF0ED7529
:10241400F00A84E5F02430A3F0900079E0FD75F033
:102424000A842430900022F0ED75F00A84E5F0244B
:1024340030A3F0900077E0FD75F00A84243090001A
:1024440025F0ED75F00A84E5F02430A3F0E4A3F060
:10245400900076E0FD75F00A842430900028F0EDB9
:1024640075F00A84E5F02430A3F0900075E0FD7562
:10247400F00A84243090002BF0ED75F00A84E5F026
:102484002430A3F0900074E0FD75F00A84243090A9
:10249400002EF0ED75F00A84E5F02430A3F0E4A3F7
:1024A400F090004874F8F0A37401F0A37400F0A352
:1024B400741DF07B07E4FD7F0F122E7E900048749C
:1024C4001FF0A37401F0A37400F0A37428F0E4FBDC
:1024D4007D087F0F122E7E90009BE0240FFB90005E
:1024E400487417F0A374FFF0E4A3F0A3F0A374FFFF
:1024F400F0E4A3F0A3F07D107F0F1233ED7F0A7E8A
:102504000012363C90009BE02410FF9000487417A2
:10251400F0E4A3F0A3F0A3F0A3F0A3F0A3F07B5F97
:102524007D101233ED7F0A7E0012363C90009CE051
:10253400240FFB900048741FF0E4A3F0A374FFF091
:10254400E4A3F0A3F0A374FFF0E4A3F07D187F0FDD
:102554001233ED7F0A7E0012363C90009CE024107A
:10256400FF900048741FF0E4A3F0A3F0A3F0A3F0DD
:10257400A3F0A3F07B5F7D181233ED7F0A7E001277
:10258400363C90009DE0240FFB9000487427F0E453
:10259400A3F0A3F0A374FFF0E4A3F0A3F0A374FFEB
:1025A400F07D207F0F1233ED7F0A7E0012363C90BF
:1025B400009DE02410FF9000487427F0E4A3F0A3EA
:1025C400F0A3F0A3F0A3F0A3F07B5F7D201233ED22
:1025D4007F0A7E0012363C900048741FF0A374FFFB
:1025E400F0A37400F0A37426F0E4FB7D287F0512A9
:1025F4002E7E9000487437F090009BE025E025E0A3
:10260400FF900049F090009CE025E025E0FE90005A
:102614004AF090009DE025E025E0FD90004BF0A3FA
:10262400EFF0A3EEF0A3EDF07B4E7D307F0F12337D
:10263400ED900048741FF0A374FFF0A37400F0A39E
:102644007435F0E4FB7D387F05122E7E20830690DE
:10265400009DE004F020820690009CE004F02081BC
:102664000690009BE004F090009DE0D3943F40026C
:10267400E4F090009CE0D3943F4002E4F090009B8F
:0E268400E0D3943F5003022400E4F00224004F
:1026920000000000000000F4000000E000E000285C
:1026A200FE28FE282454FE5448462610C8C46C92C4
:1026B200AA440A00A0C000000038448200008244FC
:1026C200380028107C102810107C1010000005061D
:1026D2000010101010100006060000040810204020
:1026E2007C8A92A27C0042FE020042868A92628426
:1026F20082A2D28C182848FE08E4A2A2A29C3C52D4
:1027020092920C808E90A0C06C9292926C60929287
:102712009478006C6C0000006A6C000010284482FF
:10272200002828282828008244281040808A9060A7
:102732004C929A8A7C3E4888483EFE9292926C7CE9
:1027420082828244FE82824438FE92929282FE907B
:102752009090807C8292925EFE101010FE0082FEAB
:102762008200040282FC80FE10284482FE020202E1
:1027720002FE403040FEFE201008FE7C8282827CF7
:10278200FE909090607C828A847AFE909894626235
:102792009292928C8080FE8080FC020202FCF804FD
:1027A2000204F8FC021C02FCC6281028C6E0100E27
:1027B20010E0868A92A2C200FE828200AA54AA5423
:1027C200AA008282FE002040804020020202020211
:1027D2000080402000042A2A2A1EFE1222221C1CEB
:1027E200222222041C222212FE1C2A2A2A18107ECD
:1027F200908040182525253EFE1020201E0022BE76
:102802000200020121BE00FE081422000082FE0224
:10281200003E2018201E3E1020201E1C2222221CB8
:102822003F24242418182424183F3E10202010127C
:102832002A2A2A0420FC2202043C0202043E380412
:102842000204383C020C023C22140814223805050A
:10285200053E22262A322200106C82000000FE0071
:0B2862000000826C1000100810201015
:0700030043CDC075CED022F1
:10357000EBF0AE077F1512358AAF0612358A7F5FF2
:0A35800012358A7F7512358AAF05F7
:10358A00C2C0C2A043CDC08FCFE5CD30E7FBD2C0C9
:01359A00220E
:1036CB00C2C0D2A043CDC08FCFE5CD30E7FBD2C077
:0136DB0022CC
:10368000C2C0C2A17F647E0012363CD2A17F647E9C
:043690000002363CC2
:102B7A001236801200037F1512358AE4FF12358A55
:102B8A007F8112358A7FDF12358A7F8212358A7FEA
:102B9A001F12358A7F8312358A7FFF12358A7F8713
:102BAA0012358A7F0F12358A7FA012358A7F7112F9
:102BBA00358A7FA412358A7FA812358A7F3F12355B
:102BCA008A7FA912358A7F0312358A7FAF12358A26
:102BDA007FB812358A7F0112358A7F0512358A7FBE
:102BEA000912358A7F0D12358A7F1112358A7F15AF
:102BFA0012358A7F1912358A7F1D12358A7F211272
:102C0A00358A7F2512358A7F2912358A7F2D12351A
:102C1A008A7F3112358A7F3512358A7F3912358A91
:102C2A007F3D12358A7F4112358A7F4512358A7F68
:102C3A004912358A7F4D12358A7F5112358A7F555E
:102C4A0012358A7F5912358A7F5D12358A7F611261
:102C5A00358A7F6512358A7F6912358A7F6D12350A
:102C6A008A7F7112358A7F7512358A7F7912358A81
:102C7A007F7D12358A7FBB12358A7F7F12358A7F24
:102C8A00BC12358A7F7F12358A7FBD12358A7F7FD3
:0D2C9A0012358A7F2612358A7F1102358A95
:02347700AE079E
:103479007F1512358AE4FF12358A7F5F12358A7FFC
:103489007512358AE4FF12358A7F3F12358AE4FCCA
:10349900E4FBAF061236CBAF051236CB0BEBB460AB
:0634A900F10CECB440EA56
:0134AF0022FA
:1033490090007DE02CFFA3E029FD900080E0FBA325
:0D335900E090008FF0900082E0900090F076
:10336600AE077F1512358AAF0612358AEF04FF12B3
:103376003580EF04FF12358A900090E033333354E2
:10338600F8FF90008FE0FE131313541F4FFF123601
:0B339600CBE0C43354E04BFF0236CB09
:082A450090007DEFF0A3EDF01D
:102A4D00E4FCA903EB75F002A4FFAEF0C374039F81
:102A5D00900084F0E49E900083F0ECC39940030253
:102A6D002B2012334990007DE0C39C12334E900011
:102A7D007DE02CFFA3E0C39912335290007DE0C39B
:102A8D009CFFA3E0C39912335290007DE029FFA370
:102A9D00E02C12335290007DE0C399FFA3E02C127D
:102AAD00335290007DE029FFA3E0C39C1233529076
:102ABD00007DE0C399FFA3E0C39C123352C3900085
:102ACD0083E064809480501CEC75F004A4FFA3E0B7
:102ADD002FFF900083E035F0CF2406CF3400F0A314
:102AED00EFF0802BE9FFECC39FFFE49400FEEF783D
:102AFD0002C333CE33CED8F9FF900084E02FFF9080
:102B0D000083E03ECF240ACF3400F0A3EFF0190C80
:102B1D00022A67EC69705512334912334990007DD2
:102B2D00E02CFFA3E0C39912335290007DE0C39CCB
:102B3D00FFA3E0C39912335290007DE029FFA3E07B
:102B4D002C12335290007DE0C399FFA3E02C123379
:102B5D005290007DE029FFA3E0C39C1233529000F8
:0C2B6D007DE0C399FFA3E0C39C1233522B
:012B79002239
:1034E400AE077F2112358AAF06123585AF03123538
:1034F4008A900088E0FF12358A90008BE0FF123535
:103504008A90008AE0FF12358A900089E0FF023534
:013514008A2C
:1033ED00AE077F2212358AAF06123585AF0312352F
:1033FD008A900048E0FF12358A90004BE0FF1235AD
:10340D008A90004AE0FF12358A900049E0FF12359C
:10341D008A90004EE0FF12358A90004DE0FF123584
:09342D008A90004CE0FF02358A90
:07319400900064EBF0AE07B0
:10319B007F1512358AAF0612358AE02E14FF1235D1
:1031AB0080A3E02D14FF12358AE4900069F0A3F0A0
:1031BB00900065E0FF900064E08FF0A425E0FFE550
:1031CB00F033FE900069E0FCA3E0FDC39FEC9E5042
:1031DB0026900066E0FBA3E0FAA3E0F98D828C83D6
:1031EB00122886FF1236CB90006AE004F070C19073
:0731FB000069E004F080B957
:0132020022A9
:032E7E009000477A
:102E8100123570EF2407FF12358A900049E0FBA349
:102E9100E0FAA3E0F912286D7003022F43E49000D9
:102EA1004CF0E4FF1236CB1236CB90004CE004F02C
:102EB100E0C3940840ECE490004CF090004CE0FF3B
:102EC100C394285070EF131313541FFF900049E06F
:102ED100FBA3E0FAA3E0F912286D75F005A42FF524
:102EE10082E435F0F583E58224F2F582E583342529
:102EF100F583E493FD7C0090004CE05407FF74805F
:102F01007E00A807088006CEA2E713CE13D8F8FFEB
:102F1100EE5CFEEF5D4E600D900047E0FF1236CB98
:102F2100A3E0FF8005E4FF1236CB1236CB90004CB4
:102F3100E004F0808690004AE475F0011228D50281
:022F41002E8BD5
:012F4300226B
:032F440090006D8D
:102F4700123570EF240FFF12358AE4900071F0906C
:102F5700006DE0FF900071E0C39F4003022FF1E492
:102F6700A3F0A3F0900071E075F020A4FF90006E2D
:102F7700E0FBA3E0FAA3E02FF9EA35F0FA9000723C
:102F8700E0FEA3E07803CEC313CE13D8F929F9EAFC
:102F97003EFA12286DFD7C00900073E05407FF7421
:102FA700807E00A807088006CEA2E713CE13D8F8C4
:102FB700FFEE5CFEEF5D4E60097F071236CB7FE0C8
:102FC7008005E4FF1236CB1236CB900073E004F095
:102FD7007006900072E004F0C3900072E094014024
:0A2FE70083900071E004F0022F5601
:012FF10022BD
:10359B00D2A37F0A7E00123707D2A47F0A7E0012C5
:1035AB003707C2A37F0A7E00123707C2A47F0A7EA9
:0435BB0000023707CC
:1035BF00C2A37F0A7E00123707D2A47F0A7E0012B1
:1035CF003707D2A37F0A7E00123707C2A47F0A7E75
:0435DF0000023707A8
:10360600C2A37F0A7E00123707D2A47F0A7E001269
:0B3616003707C2A47F0A7E00023707BE
:10362100D2A37F0A7E00123707D2A47F0A7E00123E
:0B3631003707C2A47F0A7E00023707A3
:10351500D2A37F0A7E00123707D2A47F0A7E00124B
:103525003707A2A3E433900055F07F0A7E001237D7
:0F35350007C2A47F0A7E00123707900055E0FFFF
:013544002264
:05343600900053EFF0CF
:10343B00E4A3F0900054E0FFC39408502B9000538A
:10344B00E0FEA807088002C333D8FC3392A3D2A4B2
:10345B007F0A7E00123707C2A47F0A7E001237074D
:0B346B00900054E004F080CB123515F7
:013476002233
:1033A100E4900054F0D2A3900053F0D2A47F0A7E9F
:1033B1000012370730A31A900054E0FF900053E049
:1033C100FE7480A806088002C313D8FC4F900054F5
:1033D100F0C2A47F0A7E00123707900053E004F088
:0B33E100E0C3940840C5900054E0FFDA
:0133EC0022BE
:0B370700EF1FAC0670011E4C70F62294
:102CA700900000122A08900004EBF0A3EAF0A3E9D1
:012CB700F02C
:102CB800E490001BF0A3F090001BF0900000E0FCF3
:102CC800A3E0FDA3E0FEA3E0FFEC4D4E4F6048E417
:102CD8007B0AFAF9F8900000A3A3A3E0122976EB87
:102CE8002430FF90001BE02407F582E43400F583CC
:102CF800EFF090001BE004F0900000E0FCA3E0FD82
:102D0800A3E0FEA3E0FFE47B0AFAF9F81229769023
:102D18000000122A0880A490001BE0A3F0E49000B1
:102D28001BF090001CE0FF90001BE0FEC39F503694
:102D3800EEFDC3EF9DFFE49400FE74062FF5827448
:102D4800003EF583E0FF900004E0FBA3E0FAA3E077
:102D5800F990001BE0F582758300EF1228B390000C
:102D68001BE004F080BC90001BE0701C900004E0A5
:102D7800FBA3E0FAA3E0F990001BE0FF04F08F82C8
:102D880075830074301228B3900004E0FBA3E0FAC6
:102D9800A3E0F990001BE0F582758300E40228B3F4
:0B2DA800900056EBF0A3EAF0A3E9F066
:102DB300A3122A140000000090005D122A140000E0
:102DC300000112366B900061EFF0900061E0D39444
:102DD300005003022E6F900059E0F8A3E0F9A3E03E
:102DE300FAA3E0FBC000C001C002C003900061E091
:102DF30024FFFFE434FFFE900056E0FBA3E0FAA3B8
:102E0300E0F98F828E83122886FF3395E0FEEF244C
:102E1300D0FFEE34FFFE3395E0FDFC90005DE0F85B
:102E2300A3E0F9A3E0FAA3E0FB1228EBD003D0025E
:102E3300D001D000EB2FFFEA3EFEE93DFDE83CFC6C
:102E4300900059122A0890005DE0FCA3E0FDA3E086
:102E5300FEA3E0FFE47B0AFAF9F81228EB90005D89
:102E6300122A08900061E014F0022DCD900059E081
:0A2E7300FCA3E0FDA3E0FEA3E0FFD6
:012E7D002232
:1032030090004CEFF0A3EDF0A3EBF0A3EAF0A3E9F9
:01321300F0CA
:10321400E4A3F012359B7FA2123436EF60037F01E2
:103224002290004CE0FF123436EF60037F0122E469
:10323400900051F090004DE0FF900051E0FEC39FDC
:10324400502590004EE0FBA3E0FAA3E0F98E8275CE
:103254008300122886FF123436EF60037F01229028
:0C3264000051E004F080CD1235BF7F0067
:01327000223B
:102FF20090004CEFF0A3EDF0A3EBF0A3EAF0A3E90D
:01300200F0DD
:10300300E4A3F0A3F012359B7FA2123436EF6003E2
:103013007F012290004CE0FF123436EF60037F0102
:103023002212359B7FA3123436EF60037F0122E423
:10303300900051F090004DE014FF900051E0C39FC9
:1030430050241233A190004EE0FBA3E0FAA3E0F971
:10305300A3E0F582758300EF1228B31236069000C1
:1030630051E004F080CE1233A190004EE0FBA3E0C8
:10307300FAA3E0F9A3E0F582758300EF1228B312F7
:0730830036211235BF7F006A
:01308A002223
:0F36DC00EFC4540F75F00AA4FEEF540F2EFF2217
:10369400EF75F00A84C454F0FEEF75F00A84EE2549
:0336A400F0FF2212
:103117007B017A0079457D077F02122FF2EF706AF3
:10312700900045E0547FFF1236DC900074EFF0907A
:103137000046E0547FFF1236DC900075EFF09000F8
:1031470047E0543FFF1236DC900076EFF0900048DE
:10315700E0543FFF1236DC900077EFF0900049E033
:103167005407FF1236DC900078EFF090004AE054E5
:103177001FFF1236DC900079EFF090004BE0FF1252
:0C31870036DC90007AEFF07F00227F0120
:013193002219
:1034B000E4FDED7E007B012474F9EE3400FA12285D
:1034C0006DFF12369474452DF582E43400F583EFD8
:1034D000F00DEDB407DC7B017A0079457D077F02B2
:0334E000123203A2
:0134E30022C6
:0E36EB007B017A00797B7D027F0E1232032272
:0E36F9007B017A00797B7D027F0E122FF22278
:023734000A0089
:1036A700438780438920758BFA758DFA439850D2EA
:0236B7008E2261
:0300230002372F72
:05372F00C2ACD2AC3277
:0A371200C2998F993099FDC29922E7
:0A371C007F0D1237127F0A023712E8
:0B327100900091EBF0A3EAF0A3E9F05D
:10327C0012366BEF24FFFFEE34FF900094F0A3EFB7
:10328C00F0E4FDFCD3900095E09DEC6480F8900098
:10329C0094E0648098401D900091E0FBA3E0FAA3B9
:1032AC00E0F98D828C83122886FF1237120DBD0037
:1032BC00010C80D0900091E0FBA3E0FAA3E0F98D23
:1032CC00828C83122886FEB40A0302371CAF0612C6
:0232DC003712A7
:0132DE0022CD
:1036B9007B017A007931122CA77B017A00793102DA
:0236C90032715C
:1035E300900096122A08123271900096E0FCA3E034
:1035F300FDA3E0FEA3E0FF1236B97BFF7A377934EF
:033603000232711F
:10355F0041009A0041009D0041009C0041009B00EA
:10365500438902758C70758A70D2A9D28CD2AFC29B
:0636650093C292C2942200
:03000B000232DFDF
:1032DF00C0E0C083C082C0D075D000C006C00790C8
:1032EF00009AE004F0B4401AE4F090009DE0600210
:1032FF00D29390009CE06002D29290009BE060021B
:10330F00D29490009DE0FF90009AE0FED39F400280
:10331F00C29390009CE0FFEED39F4002C2929000B8
:10332F009BE0FF90009AE0D39F4002C294D007D059
:0A333F0006D0D0D082D083D0E03257
:103097000223C4E493A3F8E493A34003F68001F268
:1030A70008DFF48029E493A3F85407240CC8C3333A
:1030B700C4540F4420C8834004F456800146F6DF09
:1030C700E4800B0102040810204080903545E47E1F
:1030D700019360BCA3FF543F30E509541FFEE493FE
:1030E700A360010ECF54C025E060A840B8E493A3C5
:1030F700FAE493A3F8E493A3C8C582C8CAC583CAF0
:10310700F0A3C8C582C8CAC583CADFE9DEE780BEA7
:01356F00005B
:10286D00BB010689828A83E0225002E722BBFE0269
:09287D00E32289828A83E493229C
:10288600BB010CE58229F582E5833AF583E0225007
:1028960006E92582F8E622BBFE06E92582F8E22251
:0D28A600E58229F582E5833AF583E493226B
:1028B300F8BB010DE58229F582E5833AF583E8F05B
:1028C300225006E92582C8F622BBFE05E92582C807
:0228D300F222EF
:1028D500C5F0F8A3E028F0C5F0F8E582158270028E
:0628E5001583E038F0222B
:1028EB00E88FF0A4CC8BF0A42CFCE98EF0A42CFC8C
:1028FB008AF0EDA42CFCEA8EF0A4CDA8F08BF0A40A
:10290B002DCC3825F0FDE98FF0A42CCD35F0FCEB68
:10291B008EF0A4FEA9F0EB8FF0A4CFC5F02ECD392D
:0F292B00FEE43CFCEAA42DCE35F0FDE43CFC229A
:10293A0075F008758200EF2FFFEE33FECD33CDCC54
:10294A0033CCC58233C5829BED9AEC99E5829840D7
:10295A000CF582EE9BFEED9AFDEC99FC0FD5F0D6B4
:10296A00E4CEFBE4CDFAE4CCF9A88222B800C1B9DE
:10297A000059BA002DEC8BF084CFCECDFCE5F0CB1C
:10298A00F97818EF2FFFEE33FEED33FDEC33FCEB55
:10299A0033FB10D703994004EB99FB0FD8E5E4F910
:1029AA00FA227818EF2FFFEE33FEED33FDEC33FCFD
:1029BA00C933C910D7059BE99A4007EC9BFCE99AF1
:1029CA00F90FD8E0E4C9FAE4CCFB2275F010EF2F36
:1029DA00FFEE33FEED33FDCC33CCC833C810D70736
:1029EA009BEC9AE899400AED9BFDEC9AFCE899F871
:0E29FA000FD5F0DAE4CDFBE4CCFAE4C8F92204
:0C2A0800ECF0A3EDF0A3EEF0A3EFF02241
:102A1400A8828583F0D083D082122A2B122A2B120B
:102A24002A2B122A2BE473E493A3C583C5F0C58330
:102A3400C8C582C8F0A3C583C5F0C583C8C582C80C
:012A4400226F
:10366B00E4FFFE12286D600C0FEF70010E09E9707C
:05367B00F20A80EF22BD
:00000001FF
